:10000000022D50020006323232323202340D3232C8
:0100100032BD
:030013000211F7E0
:03001B0002323C72
:030023000238E0C0
:03002B00020007C9
:03003300020008C0
:03003B00022AF4A2
:03004300020009AF
:03004B0002383345
:030053000216C8CA
:03005B0002000A96
:030063000237E67B
:03006B0002000E82
:0300730002000F79
:10007B0002001002043FE86480F8E933E8336011B2
:10008B000460F0ED33EC337009E8FCE9FDEAFEEBBC
:10009B00FF220460DED3EB9FEA9EE99DE8C2E78C6A
:1000AB00F0C2F795F0400CE8CCF8E9CDF9EACEFABE
:1000BB00EBCFFB12040A85D0F05804700320D5B3A4
:1000CB00E80470075002B2D502044992D5EC0460E3
:1000DB00F7E4CCC0E0C398F8603B94186008400D7F
:1000EB00D0E0FB020421E4FBFAC9FC8028E830E4F1
:1000FB0006E4C9FBE4CAFCE830E305E4C9CACBFC5F
:10010B00E854076010F8C3E913F9EA13FAEB13FB91
:10011B00EC13FCD8F130F52FC3E49CFCEF9BFFEE06
:10012B009AFEED99FDD0E0FBEF4E4D4C701222DBA9
:10013B0003020446EC2CFCEF33FFEE33FEED33FDF4
:10014B00ED30E7EB020421EF2BFFEE3AFEED39FD2C
:10015B00D0E0FB50130BBB0003020449ED13FDEE83
:10016B0013FEEF13FFEC13FC020421EC4D6011E8BE
:10017B00497017ED33EC3304600DE4FCFFFEFD22F8
:10018B00E933E8330470F802043F12040A580460A0
:10019B0009E4CC2481500628500902044928400365
:1001AB00020446C0E0EB4A7044B98006D0E0FB0283
:1001BB000435EF4E701CBD8008EBFFEAFEE9FD80B5
:1001CB00EBE98DF0A4FEE5F002025FE9CDF9EAFE62
:1001DB00EBFFEF89F0A4FCE5F0CE89F0A42EFFE451
:1001EB0035F0CD89F0A42DFEE435F08067EF4E702D
:1001FB0005BD80D780C3EF8BF0A4ACF0EE8BF0A4E1
:10020B002CFCE435F0F8EF8AF0A42CE5F038FCE494
:10021B0033CB8DF0A42CFCE5F03BF8EE8AF0A42C4C
:10022B00FCE5F038F8E433CF89F0A42CFCE5F0388A
:10023B00CF3400CE89F0A42FFFE5F03EFEE433C9A6
:10024B008DF0A42EFEE5F039CD8AF0A42FFFE5F05A
:10025B003EFEE43DFD33D0E0FB50070BBB000F022D
:10026B000449EC2CFCEF33FFEE33FEED33FD0204BF
:10027B0021020449EC5D046005E859047003020493
:10028B003F12040A580460F6EC4860F2EC7004FD6F
:10029B00FEFF22C860DB2481C85009C3986002505E
:1002AB00060204469850CAF582E9294B4A7005AB01
:1002BB008202043575F0007C1A7880C3EF9BEE9AAE
:1002CB00ED99400DC3EF9BFFEE9AFEED99FDE842D1
:1002DB00F0DC23ACF0D0E0FFD0E0FED0E0FDAB8251
:1002EB0020E7101BEB60BAEC2CFCEF33FFEE33FE78
:1002FB00ED33FD020421E803F830E705C0F075F09B
:10030B0000EF2FFFEE33FEED33FD40B830E7C28038
:10031B00AA74F8CC6480CCC86480C8F58204604FA2
:10032B00C3EB9FF5F0EA9E42F0E99D42F0E89C4555
:10033B00F0603C501DE5825FFFE582D313CB5BCBB6
:10034B00F42B5582FB50280ABA002409B900200867
:10035B00801DE5825BFBE582D313CF5FCFF4C31324
:10036B002F5582FF50090EBE00050DBD00010CC3B9
:10037B00EB9FF5F0EA9E42F0E99D42F0E89C45F0D8
:10038B006007CC4820E701B3EC2275F020800E7596
:10039B00F010800575F0087D007E007F003392D54C
:1003AB0030D503120807EC334010EF33FFEE33FE6A
:1003BB00ED33FDEC33FCD5F0ED22E5F0247EA2D538
:1003CB0013CC92E7CDCEFF22EDD2E7CD33EC3392B7
:1003DB00D524814006E4FFFEFDFC22FCE4CFCECD0C
:1003EB00CC24E0501174FF80EDC3CC13CCCD13CDD6
:1003FB00CE13CECF13CF0470F030D5DE020807E951
:10040B00D2E7C933E833F892D5EDD2E7CD33EC33ED
:10041B00FC5002B2D522EC30E7100FBF000C0EBE21
:10042B0000080DBD00040BEB6014A2D5EB13FCED23
:10043B0092E7FD2274FFFCFDFEFF22E480F8A2D5BB
:10044B0074FF13FC7D80E480EFBB010689828A83F5
:10045B00E0225002E722BBFE02E32289828A83E478
:10046B009322BB010CE58229F582E5833AF583E003
:10047B00225006E92582F8E622BBFE06E92582F822
:10048B00E222E58229F582E5833AF583E49322BBE8
:10049B00010989828A83F8E028F022500327F7228A
:1004AB00BBFE05F8E328F3228A838982F8E49328BC
:1004BB0022BB010FF8E58229F582E5833AF583E04B
:1004CB0028F0225009C58229F8E58226F622BBFEC8
:1004DB0009C58229F8E22582F222F8EA2583F58301
:1004EB00E9932822BB010689828A83F0225002F706
:1004FB0022BBFE01F322F8BB010DE58229F582E553
:10050B00833AF583E8F0225006E92582C8F622BB30
:10051B00FE05E92582C8F222EF8DF0A4A8F0CF8C5E
:10052B00F0A428CE8DF0A42EFE22BC000BBE002919
:10053B00EF8DF084FFADF022E4CCF875F008EF2FCF
:10054B00FFEE33FEEC33FCEE9DEC984005FCEE9D8C
:10055B00FE0FD5F0E9E4CEFD22EDF8F5F0EE8420A8
:10056B00D21CFEADF075F008EF2FFFED33FD400709
:10057B00985006D5F0F222C398FD0FD5F0EA22C5AC
:10058B00F0F8A3E028F0C5F0F8E5821582700215AB
:10059B0083E038F022A3F8E0C5F025F0F0E58215F2
:1005AB008270021583E0C838F0E822BB010A898209
:1005BB008A83E0F5F0A3E022500687F009E71922C1
:1005CB00BBFE07E3F5F009E3192289828A83E493E2
:1005DB00F5F074019322BB0110E58229F582E583C6
:1005EB003AF583E0F5F0A3E0225009E92582F8867D
:1005FB00F008E622BBFE0AE92582F8E2F5F008E2F4
:10060B0022E5832AF583E993F5F0A3E99322BB0155
:10061B000789828A8302058A500B09C5F027F7C523
:10062B00F01937F722BBFE0D09F8E325F0F3C5F0FF
:10063B0019E338F322F889828A8374019325F0C574
:10064B00F0F8E4933822BB010DC58229C582C5831E
:10065B003AC58302058A5011C58229F808E5F026B0
:10066B00F618F5F0E58236F622BBFE11C58229F8A5
:10067B0008E225F0F5F0F218E23582F222F8E58275
:10068B0029F582E5832AF58374019325F0F5F0E4CF
:10069B00933822BB010A89828A83F0E5F0A3F0220A
:1006AB005006F709A7F01922BBFE06F3E5F009F394
:1006BB001922F8BB0111E58229F582E5833AF5830E
:1006CB00E8F0E5F0A3F0225009E92582C8F608A668
:1006DB00F022BBFE09E92582C8F2E5F008F222E818
:1006EB008FF0A4CC8BF0A42CFCE98EF0A42CFC8A0C
:1006FB00F0EDA42CFCEA8EF0A4CDA8F08BF0A42D89
:10070B00CC3825F0FDE98FF0A42CCD35F0FCEB8E29
:10071B00F0A4FEA9F0EB8FF0A4CFC5F02ECD39FEDF
:10072B00E43CFCEAA42DCE35F0FDE43CFC2275F054
:10073B0008758200EF2FFFEE33FECD33CDCC33CCDB
:10074B00C58233C5829BED9AEC99E58298400CF5F6
:10075B0082EE9BFEED9AFDEC99FC0FD5F0D6E4CE24
:10076B00FBE4CDFAE4CCF9A88222B800C1B9005958
:10077B00BA002DEC8BF084CFCECDFCE5F0CBF97825
:10078B0018EF2FFFEE33FEED33FDEC33FCEB33FBB9
:10079B0010D703994004EB99FB0FD8E5E4F9FA2243
:1007AB007818EF2FFFEE33FEED33FDEC33FCC9333E
:1007BB00C910D7059BE99A4007EC9BFCE99AF90F06
:1007CB00D8E0E4C9FAE4CCFB2275F010EF2FFFEE72
:1007DB0033FEED33FDCC33CCC833C810D7079BECBD
:1007EB009AE899400AED9BFDEC9AFCE899F80FD535
:1007FB00F0DAE4CDFBE4CCFAE4C8F922C3E49FFFC2
:10080B00E49EFEE49DFDE49CFC22EB9FF5F0EA9E4A
:10081B0042F0E99D42F0EC6480C864809845F02278
:10082B00EB9FF5F0EA9E42F0E99D42F0E89C45F023
:10083B0022E8600FECC313FCED13FDEE13FEEF1378
:10084B00FFD8F122E86010ECA2E713FCED13FDEEEC
:10085B0013FEEF13FFD8F022BB010DE58229F582C1
:10086B00E5833AF5830209975007E92582F80208D8
:10087B00B7BBFE07E92582F80209A3E58229F582B9
:10088B00E5833AF5830209AFBB010DE58229F582B9
:10089B00E5833AF5830208DC5007E92582F8020864
:1008AB00D0BBFE07E92582F80209BF22E6FC08E669
:1008BB00FD08E6FE08E6FF22E6FB08E6F908E6FA85
:1008CB0008E6CBF822ECF608EDF608EEF608EFF6A4
:1008DB0022ECF0A3EDF0A3EEF0A3EFF022D083D047
:1008EB0082E493F608740193F608740293F6087485
:1008FB000393F6740473A8828583F0D083D082129D
:10090B000918120918120918120918E473E493A3B1
:10091B00C583C5F0C583C8C582C8F0A3C583C5F020
:10092B00C583C8C582C822A42582F582E5F035832C
:10093B00F58322EC8EF0A4CCC5F0CCCDF8EFA4CE91
:10094B00C5F02DFDE43CFCE8A42EC8C5F03DFDE44C
:10095B003CFCEFA4FFE5F028FEE43DFDE43CFC226B
:10096B00EF4E6012EF60010EEDBB010B89828A83A3
:10097B00F0A3DFFCDEFA2289F05007F709DFFCA9B0
:10098B00F022BBFEFCF309DFFCA9F022E0FCA3E0A4
:10099B00FDA3E0FEA3E0FF22E2FC08E2FD08E2FE7D
:1009AB0008E2FF22E493FC740193FD740293FE743E
:1009BB000393FF22ECF208EDF208EEF208EFF222BD
:1009CB009001B5EBF0A3EAF0A3E9F0900073E060BF
:1009DB0003020BD9D3900001E09462900000E094E5
:1009EB006540439001B5E0FBA3E0FAA3E0F990006A
:1009FB0002E475F0011206519000021205E1D39446
:100A0B0014E5F0940040439001B5E0FBA3E0FAA39A
:100A1B00E0F9900002E4F5F01206BD900073740447
:100A2B00F012394D80249001B5E0FBA3E0FAA3E06E
:100A3B00F99000021205E1D39400E5F09400400A0E
:100A4B0090000274FFF5F0120651900000E0FEA337
:100A5B00E0FFC394B1EE9432504C9001B5E0FBA390
:100A6B00E0FAA3E0F990000AE475F0011206519048
:100A7B00000A1205E1D3941EE5F09400405B90014F
:100A8B00B5E0FBA3E0FAA3E0F990000AE4F5F0125D
:100A9B0006BDD2B6D2B7D280D281D282D283900099
:100AAB00747401F080339001B5E0FBA3E0FAA3E08E
:100ABB00F990000A1205E1D39400E5F09400400C84
:100ACB0090000A74FFF5F0120651800D900074E04F
:100ADB006007E4F090011404F0C3EF9404EE942645
:100AEB004003020BB59001B5E0FBA3E0FAA3E0F9DC
:100AFB00900004E475F0011206519000041205E118
:100B0B00D3941EE5F094005003020BD99001B5E08D
:100B1B00FBA3E0FAA3E0F9900004E4F5F01206BDA4
:100B2B00900008E475F0781206BD9000737403F022
:100B3B0012394DE4900118F090011AF0900115E074
:100B4B006003020BD9900110E0A3E09001D2F012E8
:100B5B0028BA9001D3EFF064116038E0FF64216094
:100B6B0032EF6441602DEF64126028EF6422602342
:100B7B00EF6442601EEF64146019EF64246014EF9D
:100B8B006444600FEF6418600AEF64286005EF643B
:100B9B0048703BC2AF1230C49001D2E0FF122EE777
:100BAB00D2AF9001157401F080249001B5E0FBA346
:100BBB00E0FAA3E0F99000041205E1D39400E5F00C
:100BCB009400400A90000474FFF5F0120651900057
:100BDB0073E0FF64046008EF64036003020C9390FE
:100BEB0001B5E0FBA3E0FAA3E0F99000081205E1E0
:100BFB00D39400E5F094005003020C93900008741A
:100C0B00FFF5F01206519000081205E1C3943CE584
:100C1B00F09400404990405EE0FCA3E0FDE4120339
:100C2B009A7BCD7ACC79CC783D1201761203D39096
:100C3B004058EEF0A3EFF0904062E054F7F0904094
:100C4B005CC083C082E0FFA3E04403D082D083CF9B
:100C5B00F0A3EFF0904062E04480F0D2FF229001CD
:100C6B00B5E0FBA3E0FAA3E0F99000081205E1D38D
:100C7B009428E5F094005006C2FFE4F5F8229000AA
:100C8B0008E475F03C1206BD229001B5EBF0A3EA27
:100C9B00F0A3E9F09001C5E064076003020EE59054
:100CAB0001B5E0FBA3E0FAA3E0F99000101205E117
:100CBB00D394E8E5F09403500D900010E475F00127
:100CCB00120651020EE5C37416941474009400407E
:100CDB001F9040D4E0FEA3E0D394B2EE64809480E6
:100CEB004071900017E09432900016E0940050632E
:100CFB009001B5E0FBA3E0FAA3E0F9900012E475D4
:100D0B00F0011206519000121205E1C39432E5F086
:100D1B00940040639001B5E0FBA3E0FAA3E0F990E7
:100D2B000012E4F5F01206BD9000737406F0786BB8
:100D3B0006E61870010612394D9001B5E0FBA3E0F1
:100D4B00FAA3E0F9900010E4F5F01206BD786C768A
:100D5B000180249001B5E0FBA3E0FAA3E0F9900039
:100D6B00121205E1D39400E5F09400400A900012B2
:100D7B0074FFF5F012065190000EE0FEA3E0FFC3E6
:100D8B009417EE6480949D400BD3EF9473EE6480C4
:100D9B0094D140639001B5E0FBA3E0FAA3E0F99096
:100DAB000014E475F0011206519000141205E1C312
:100DBB009414E5F0940040639001B5E0FBA3E0FAD6
:100DCB00A3E0F9900014E4F5F01206BD90007374E3
:100DDB0006F0786B06E61870010612394D9001B5D6
:100DEB00E0FBA3E0FAA3E0F9900010E4F5F01206A3
:100DFB00BD786C760280249001B5E0FBA3E0FAA3EA
:100E0B00E0F99000141205E1D39400E5F094004052
:100E1B000A90001474FFF5F01206519001B8E0FB34
:100E2B00A3E0FAA3E0F99000071205E1C394D0E523
:100E3B00F09422501E9000091205E1C394D0E5F006
:100E4B009422500F90000B1205E1C394D0E5F0945F
:100E5B002240639001B5E0FBA3E0FAA3E0F9900018
:100E6B0018E475F0011206519000181205E1C394B5
:100E7B0014E5F0940040639001B5E0FBA3E0FAA306
:100E8B00E0F9900018E4F5F01206BD9000737406BB
:100E9B00F0786B06E61870010612394D9001B5E03B
:100EAB00FBA3E0FAA3E0F9900010E4F5F01206BD05
:100EBB00786C760380249001B5E0FBA3E0FAA3E005
:100ECB00F99000181205E1D39400E5F09400400A64
:100EDB0090001874FFF5F0120651900073E0640651
:100EEB0070579001C5E06409704FD3786BE694049A
:100EFB0018E6940050439001B5E0FBA3E0FAA3E0A1
:100F0B00F990001AE475F00112065190001A1205BF
:100F1B00E1C394E8E5F0940340339001B5E0FBA303
:100F2B00E0FAA3E0F990001AE4F5F01206BDE490A4
:100F3B000073F09001C504F0229001B5E0FBA3E033
:100F4B00FAA3E0F990001AE4F5F01206BD22900125
:100F5B00C5E0640970030211C9900104E06003024B
:100F6B001167900110E0FEA3E0FF547024E07003C2
:100F7B0002102824E070030210C724306003021112
:100F8B00C9EF540F24FE602424FE604224FC6060F1
:100F9B002407707CD2B6D2B7D280C281D282D283E0
:100FAB0090018F740AF0A37428F08064D2B6D2B784
:100FBB00C280C281D282D28390018F740AF0A37453
:100FCB008CF09001937432F0A374C8F08042D2B6C7
:100FDB00C2B7C280C281D282D28390018F740DF0CE
:100FEB00A37448F0900193741FF0A37440F0802019
:100FFB00C2B6C2B7C280C281D282D28390018F7433
:10100B0010F0A374CCF09001937414F0A37450F00F
:10101B00900075742EF0A3748BF00211C99001111E
:10102B00E0540F24FE602424FE604224FC60602404
:10103B0007707CD2B6D2B7D280C281C282D28390E3
:10104B00018F740AF0A37428F08064D2B6D2B7C2B1
:10105B0080C281C282D28390018F740BF0A374542F
:10106B00F09001937432F0A374C8F08042D2B6C2F0
:10107B00B7C280C281C282D28390018F740EF0A35B
:10108B007442F0900193741FF0A37440F08020C25F
:10109B00B6C2B7C280C281C282D28390018F741252
:1010AB00F0A374C0F09001937414F0A37450F090FB
:1010BB0000757435F0A37486F00211C9900111E02C
:1010CB00540F24FE602424FE604224FC606024073D
:1010DB00707CD2B6D2B7D280C281C282C283900159
:1010EB008F740AF0A37428F08064D2B6D2B7C28092
:1010FB00C281C282C28390018F740BF0A374B8F0CB
:10110B009001937432F0A374C8F08042D2B6C2B788
:10111B00C280C281C282C28390018F740EF0A3740D
:10112B00D8F0900193741FF0A37440F08020C2B6E6
:10113B00C2B7C280C281C282C28390018F7413F086
:10114B00A37488F09001937414F0A37450F0900082
:10115B0075743DF0A37416F08064806290018F74F7
:10116B000AF0A37428F0900111E0547024E0602081
:10117B0024E0603424307046D2B6D2B7D280C2811C
:10118B00D282D283900075742EF0A3748BF0802ED4
:10119B00D2B6D2B7D280C281C282D283900075748C
:1011AB0035F0A37486F08016D2B6D2B7D280C28146
:1011BB00C282C283900075743DF0A37416F0900147
:1011CB008FE0FEA3E0FFE4FCFD9001401208DC90F1
:1011DB0001A1E0FEA3E0FFC374809FFFE49EFE909D
:1011EB00018EE02FF090018DE03EF022C0E0C0F0C8
:1011FB00C083C082C0D075D000C000C001C002C087
:10120B0003C004C005C006C007539DFE9001C5E096
:10121B00FFB407046406603590015CE07012C28C69
:10122B00D28B04F09001A1E4F0A3F0439F01801D49
:10123B0090014DE070179001A1E593F0A3E592F0BA
:10124B00539FFEE4F593F59290014D04F0C29190FB
:10125B000032E07002A3E060030214149001C5E0B9
:10126B00640760030214147F287E0AFDFC90014082
:10127B00E0F8A3E0F9A3E0FAA3E0FBC312082B709C
:10128B0003021414900073E0600302141490000E18
:10129B00E0FEA3E0FFD39440EE6480949F500302E2
:1012AB001414EF9450EE648094C64003021414900F
:1012BB000158E0F8A3E0F9A3E0FAA3E0FB900000EB
:1012CB00E0FEA3E0FFE4FCFDEB2FFFEA3EFEED3971
:1012DB00FDEC38FC9001581208DC900144E004F05E
:1012EB00E0C3943250030213EFE4F07B32FAF9F8C7
:1012FB00900158E0FCA3E0FDA3E0FEA3E0FF120782
:10130B007590014EEEF0A3EFF09001581209010019
:10131B00000000E47FB07E04FDFC900140E0F8A3E8
:10132B00E0F9A3E0FAA3E0FB1206EA9001491208E8
:10133B00DC90014EE0FEA3E0FF7C007D5A120535E8
:10134B00AC06AD07120523AB07AA06E4F9F890012A
:10135B0049E0FCA3E0FDA3E0FEA3E0FF120775C389
:10136B0074B49FFFE49EFEE49DE49C90397275F08B
:10137B0002EF120932EE25E02583F583E493FE7428
:10138B000193FF7C007D07120523EF24E8FFEE3469
:10139B0003FEE4FD9001451208DCE47F407E06FD70
:1013AB00FC900145E0F8A3E0F9A3E0FAA3E0FBD33E
:1013BB0012082B500A90014512090100000640E467
:1013CB007F507E46FDFC900145E0F8A3E0F9A3E0D9
:1013DB00FAA3E0FBC312082B400A90014512090146
:1013EB0000004650900145E0A3E0A3E0FEA3E0FF20
:1013FB008EA78FA6E5A624E0FFE5A734FCF5A58F05
:10140B00A4E4F5A3F5A2439D019001C5E0B4092422
:10141B00900073E0B4031DD39001C2E0945090018F
:10142B00C1E09400400E9001C5E4F0900073F07899
:10143B0079F608F69001C1E4F0A3F053D4FED0077F
:10144B00D006D005D004D003D002D001D000D0D02C
:10145B00D082D083D0F0D0E03230950302152090AB
:10146B000117E0FF600302150E900107E004F07016
:10147B0006900106E004F0C3900107E0943290015E
:10148B0006E0648094805003021545E4F0A37432A7
:10149B00F09001177401F0900102E0FE94085010D7
:1014AB00900118E0700AEE25E0900102F00215455C
:1014BB00900102E0FED394014010900118E0B401BA
:1014CB0009EEC313900102F08070900102E0FEB4AC
:1014DB00080F9001187401F0EEC313900102F08015
:1014EB0059900102E0FEB4010EE4900118F0EE25D4
:1014FB00E0900102F08043E4900118F090010204A7
:10150B00F08037EFB40107900102E0F0802CE490FB
:10151B000117F08025900107E024FFF0900106E011
:10152B0034FFF0D3A3E09400900106E06480948034
:10153B005008E4F0A3F0900117F030970302160265
:10154B00900119E0FF60030215F0900109E004F02F
:10155B007006900108E004F0C3900109E09432900A
:10156B000108E0648094805003021627E4F0A37412
:10157B0032F09001197401F0900103E0FE94405099
:10158B001090011AE0700AEE25E0900103F00216AC
:10159B0027900103E0FED39410401090011AE0B4A1
:1015AB000109EEC313900103F08071900103E0FE7B
:1015BB00B4400F90011A7401F0EEC313900103F0C5
:1015CB00805A900103E0FEB4100EE490011AF0EE85
:1015DB0025E0900103F08044E490011AF0900103A0
:1015EB007420F08037EFB40107900103E0F0802CFA
:1015FB00E4900119F08025900109E024FFF090019F
:10160B0008E034FFF0D3A3E09400900108E064807D
:10161B0094805008E4F0A3F0900119F0209349E472
:10162B0090010CF0A3F0C390010BE0943C90010AE5
:10163B00E064809480500CA3E004F0700690010AE3
:10164B00E004F0C390010BE0943290010AE0648057
:10165B0094804052E4F0A37432F090011B7401F0BB
:10166B009001047408F0803EE490010AF0A3F0C3EB
:10167B0090010DE0946490010CE064809480500C18
:10168B00A3E004F0700690010CE004F0C390010D90
:10169B00E0945090010CE0648094804009E4900148
:1016AB001BF0900104F0900103E0FF900102E06F4A
:1016BB00FF7E00900104E0FDE4EF6DFF22C0E0C06F
:1016CB00F0C083C082C0D075D000C000C001C00282
:1016DB00C003C004C005C006C007904061E020E70E
:1016EB00030218E3904039E04440F09001C5E0B4A8
:1016FB0007359040D8A3E025E0FF0582D58202157F
:10170B00831582E033900004F0A3EFF0900004E027
:10171B00FEA3E0FFA3E0FCA3E0FD7B141236AB902D
:10172B000006EEF0A3EFF09001C5E0FF6401603F0F
:10173B00EF603C9040D4E0FEA3E0FF90000EE0FC95
:10174B00A3E0FD7B1E1236AB90000EEEF0A3EFF084
:10175B009040D6E0FEA3E0FF900016E0FCA3E0FD76
:10176B007B0A1236AB900016EEF0A3EFF0800790D9
:10177B00000EE4F0A3F09040BAE0FEA3E0FF90006F
:10178B001EE0FCA3E0FD7B0A1236AB90001EEEF0D0
:10179B00A3EFF09040B8E0FEA3E0FF900020E0FC48
:1017AB00A3E0FD7B0A1236AB900020EEF0A3EFF026
:1017BB001219161235B6900114E06008120F5990E9
:1017CB000114E4F09001C5E0B40711904098E0FFDC
:1017DB00A3E0900000CFF0A3EFF08028900304E08B
:1017EB00FFA3E090008ACFF0A3EFF090008AE0FE19
:1017FB00A3E07803C333CE33CED8F9FF900000EECD
:10180B00F0A3EFF0900302E0FEA3E07803C333CE26
:10181B0033CED8F9FF90013EEEF0A3EFF090013EEE
:10182B00E0FEA3E0FF900191E0FCA3E0FD7B0A1238
:10183B0036AB900191EEF0A3EFF0122CC3D39000D6
:10184B0031E09400900030E09400400CA3E024FFC2
:10185B00F0900030E034FFF0D3900137E09400902B
:10186B000136E09400400CA3E024FFF0900136E039
:10187B0034FFF0D37857E6940018E694004007083D
:10188B00E616187001169001C2E004F07006900184
:10189B00C1E004F0D39001C2E094C89001C1E09480
:1018AB00004006E4F0A374C8F09001C5E0B4071B38
:1018BB00D3900033E09400900032E09400400CA3EE
:1018CB00E024FFF0900032E034FFF012354B122E83
:1018DB0063904061E0547FF0E59F30E703539F7FB7
:1018EB00E59F30E603539FBFE59F30E503539FDF32
:1018FB00D007D006D005D004D003D002D001D00041
:10190B00D0D0D082D083D0F0D0E032E49001B5F0CB
:10191B00A3F09001C5E0FF64076008EF6408600363
:10192B00021AE7900079E4F0A3749AF0A3E4F0A311
:10193B007414F0900002E0FEA3E0FFEE6003021AC5
:10194B00E7EF14605D046003021AE79040D4E0FEF9
:10195B00A3E0D3949EEE648094925003021AE79016
:10196B0040AEE4F0A3F09040AD7404F0900002E4BC
:10197B00F0A304F09040947418F0A3E4F0A3744C1B
:10198B00F0A374CCF09040B4747AF0A374E0F090B0
:10199B0040D4E0FFA3E0900077CFF0A3EFF0122C40
:1019AB003122900025E004F07006900024E004F052
:1019BB00900024E0FCA3E0FDE412039AE4FBFAF9A7
:1019CB00784012031C5010E4900024F0A3F07B012C
:1019DB007A007975122228900027E004F0700690A7
:1019EB000026E004F0D3900027E09405900026E059
:1019FB009400406EE4F0A3F0900077E0FFA3E0903A
:101A0B000051CFF0A3EFF090000EE0FEA3E0FF90AB
:101A1B000053EEF0A3EFF0948BEE648094AE500E77
:101A2B0075EF0475EECC75F30075F228801C9000F1
:101A3B0079E4F0A3741EF0A3E4F0A37404F075EF43
:101A4B000175EE9975F30075F2287B017A007951D7
:101A5B00122F6790005BE0FFA3E0904092CFF0A3C2
:101A6B00EFF090408EE0FEA3E0C39490EE64809480
:101A7B008B502790408EE0FFA3E090001BCFF0A38C
:101A8B00EFF0E0240AF090001BE03400F0E0FFA33D
:101A9B00E090408ECFF0A3EFF02290408EE0FEA3BB
:101AAB00E0D394A4EE6480948B402790408EE0FFAB
:101ABB00A3E090001BCFF0A3EFF0E024F6F0900032
:101ACB001BE034FFF0E0FFA3E090408ECFF0A3EFDC
:101ADB00F02290408E740BF0A3749AF0229001C503
:101AEB00E064076003021C4D90002E1205E1D394B5
:101AFB00E8E5F064809483504790002EE475F00184
:101B0B00120651D390000FE0942E90000EE06480EB
:101B1B0094BA402C900017E09432900016E0940099
:101B2B00501E90002EE4F5F01206BD900073740762
:101B3B00F012394D786806E618700106786976015F
:101B4B009000281205E1D394B0E5F06480948440B2
:101B5B0003021C02900028E475F00112065190005C
:101B6B002AE475F00112065190002A1205E1C39484
:101B7B002CE5F0648094815003021C0B90002A74B6
:101B8B000175F02C1206BDC3900017E09414900061
:101B9B0016E094005044900026E475F001120651B3
:101BAB009000261205E1C39432E5F06480948040E6
:101BBB004F9000737407F012394D786806E6187071
:101BCB00010690002AE4F5F01206BD900026E4F51C
:101BDB00F01206BD7869760280269000261205E188
:101BEB00D39400E5F064809480401590002674FF38
:101BFB00F5F01206518009900026E4F5F01206BDAF
:101C0B00900002E07002A3E0703890002C75F00198
:101C1B0012065190002C1205E1C39440E5F064804C
:101C2B00949F401E90002CE4F5F01206BD900073BB
:101C3B007407F012394D786806E61870010678695A
:101C4B007603900073E0640770429001C5E064096D
:101C5B00703AD37868E6940A18E69400502E9000F8
:101C6B0030E475F0011206519000301205E1D39467
:101C7B00D0E5F0648094874013900030E4F5F012C7
:101C8B0006BDE4900073F09001C504F0229001C5ED
:101C9B00E064076003021E2790001C75F00112061A
:101CAB005190001C1205E1D39432E5F094005003DF
:101CBB00021E2790001CE4F5F01206BD7863E6FEC9
:101CCB0008E6FF7C007D03120523D37862E69F189C
:101CDB00E69E501F7865E6FE08E6FF120523786145
:101CEB00E6FC08E6FDD39FEC9E5008ED940EEC94B9
:101CFB000D400C90001EE475F001120651801990F6
:101D0B00001E1205E1D39400E5F09400400A900008
:101D1B001E74FFF5F01206517861E6FE08E6FF7CB3
:101D2B00007D03120523D37864E69F18E69E501FAF
:101D3B007865E6FE08E6FF1205237863E6FC08E605
:101D4B00FDD39FEC9E5008ED940EEC940D400C903F
:101D5B000020E475F0011206518019900020120545
:101D6B00E1D39400E5F09400400A90002074FFF555
:101D7B00F01206517861E6FE08E6FF7C007D031247
:101D8B000523D37866E69F18E69E501F7863E6FE20
:101D9B0008E6FF1205237865E6FC08E6FDD39FEC09
:101DAB009E5008ED940EEC940D400C900022E475BF
:101DBB00F00112065180199000221205E1D3940014
:101DCB00E5F09400400A90002274FFF5F0120651E2
:101DDB00E47861F608F608F608F608F608F69000BF
:101DEB001E1205E1D39414E5F09400501E900020D0
:101DFB001205E1D39414E5F09400500F90002212D9
:101E0B0005E1D39414E5F094004011786E06E618C2
:101E1B007001069000737405F012394D229000CCBE
:101E2B00E0FFA3E09000D8CFF0A3EFF0E4FEEEC309
:101E3B009405503FEE25E024CEF582E43400F58383
:101E4B00E0FCA3E0FDD39000D9E09D9000D8E09C8E
:101E5B00401EEE049000ECF0EE25E024CEF582E47B
:101E6B003400F583E0FDA3E09000D8CDF0A3EDF0B6
:101E7B000E80BB9000ECE025E024CCF582E434002E
:101E8B00F58374FFF0A374FAF09000CCE0FFA3E0AD
:101E9B009000DACFF0A3EFF0E4FEEEC39405503FD1
:101EAB00EE25E024CEF582E43400F583E0FCA3E0DC
:101EBB00FDD39000DBE09D9000DAE09C401EEE0429
:101ECB009000EDF0EE25E024CEF582E43400F583AE
:101EDB00E0FDA3E09000DACDF0A3EDF00E80BB9017
:101EEB0000ECE014602F14604314605914607014FC
:101EFB007003021F8524056003021F9B9000EDE019
:101F0B00B40308A3E4F0A374D2F0229000EEE4F043
:101F1B00A374B4F0229000EDE0B40208A3E4F0A3A4
:101F2B00741EF022E49000EEF0A3F0229000EDE09E
:101F3B00B40508A3E4F0A3745AF0229000EEE4F089
:101F4B00A3743CF0229000EDE0B40409A37401F0FB
:101F5B00A3740EF0229000EEE4F0A374F0F0229044
:101F6B0000EDE0B40109A37401F0A3744AF02290D0
:101F7B0000EE7401F0A3742CF0229000EDE07007DA
:101F8B00A3F0A37496F0229000EEE4F0A37478F023
:101F9B00229001C5E0B40C004003022104901FAF56
:101FAB00F8282873021FD302200E02202902204991
:101FBB0002205F02206302207A02207E022096021A
:101FCB0021040221040220EC12364C90018CE064B7
:101FDB00016003022104900081E06401600302218F
:101FEB0004900030E07002A3E06003022104900132
:101FFB00C504F0904082E4F0A3F0A3F0A3F0A3F0AB
:10200B00A3F0221238579001C57402F0900030E40F
:10201B00F0A37464F0A37403F0A374E8F022122508
:10202B0055900030E07002A3E06003022104C2FF70
:10203B009001C57403F0E4900030F0A3F0229001FE
:10204B00C57404F09001BEE054DFF074FF90000CF7
:10205B00F0A3F02212263B22122DDC900030E07010
:10206B0002A3E060030221049001C57406F0221262
:10207B0027EF22900075E07002A3E0707C9001C501
:10208B007408F0904092E4F0A3F022C390000FE0AC
:10209B0094A290000EE06480948B400A900030E094
:1020AB007002A3E070129040A0E4F0904062E05404
:1020BB00DFF0E49001C5F022D3900076E09400901D
:1020CB000075E06480948040309001C57407F0E4A3
:1020DB00900002F0A3F09040927403F0A3747BF095
:1020EB0022900030E07002A3E0700EC2FF904062BD
:1020FB00E054DFF0E49001C5F0229001C5E0FF64ED
:10210B00076008EF640660030222279040CAE0FED6
:10211B00A3E0FF1238FD900001EE8FF01206BD9088
:10212B0040C8E0FEA3E0FF1238FD900003EE8FF0F5
:10213B001206BD9040C6E0FEA3E0FF1238FD9000F2
:10214B0005EE8FF01206BD9000071205E1FFAEF011
:10215B009000011205E1FDACF0D39FEC9E4009907D
:10216B000007EC8DF01206BD9000091205E1FFAEE1
:10217B00F09000031205E1FDACF0D39FEC9E4009FB
:10218B00900009EC8DF01206BD90000B1205E1FFDB
:10219B00AEF09000051205E1FDACF0D39FEC9E4034
:1021AB000990000BEC8DF01206BD9000071205E1B3
:1021BB00C3941CE5F0941A501E9000091205E1C35C
:1021CB00941CE5F0941A500F90000B1205E1C39488
:1021DB001CE5F0941A4038740112049A120454C38B
:1021EB0094034038B2B6900007E4F5F01206BD90A8
:1021FB000009E4F5F01206BD90000BE4F5F01206B1
:10220B00BDE41204EF9000737402F012394D2212E8
:10221B000454D39400400574FF12049A229001B722
:10222B00EBF0A3EAF0A3E9F09001B7E0FBA3E0FA2F
:10223B00A3E0F99000021205E1FFAEF01205B6FD26
:10224B00C3EF9DE5F06480F8EE648098505F9001D9
:10225B00B7E0A3E0A3E09000041205E1FFAEF0901D
:10226B0000021205E12FFFE5F03EFE1205B6FDACB4
:10227B00F0C3EF9DEC6480F8EE648098501A9001E7
:10228B00B7E0A3E0A3E09000041205E1FF90000289
:10229B00E5F08FF0120651229001B7E0FBA3E0FAB4
:1022AB00A3E0F9900002EC8DF01206BD229001B76D
:1022BB00E0FBA3E0FAA3E0F99000061205E1FFAE04
:1022CB00F09000021205E1C39FFFE5F09EFE1205A0
:1022DB00B6FDD3EF9DE5F06480F8EE648098403A4C
:1022EB009001B7E0A3E0A3E02402F9E43AFAC002BC
:1022FB00C0011205B6FFAEF09001B7E0A3E0FAA360
:10230B00E0F99000061205E1FDC3EF9DFFEE95F09D
:10231B00D001D0028FF012069E229001B7E0FBA3F2
:10232B00E0FAA3E0F91205B6FF900002E5F08FF09A
:10233B001206BD22904062E054DFF0E04420F090A2
:10234B0040A0E4F0A3F0904090F0A3F0A3F0A3F032
:10235B009040CCF0A3F09040AAF0A3F09040A8F0EE
:10236B00A3F09040ACF09040AE04F0A3746CF090EE
:10237B0040AD7402F09040B0740CF0A374CCF0A399
:10238B0074F3F0A37434F0A3747AF0A374E0F0A3A5
:10239B007485F0A37420F090408C7468F0A3749C47
:1023AB00F0A37409F0A374B0F09040887423F0A3E9
:1023BB007431F0A3E4F0A3F09040807410F0A37498
:1023CB00C3F090407EE4F0A3746EF090407C74698F
:1023DB00F0A37450F09040A374A0F09040A1E0548F
:1023EB007FF0904078746CF0A374CBF0A37405F07D
:1023FB00A374BEF09040A0E04401F0904062E04432
:10240B0040F09040A0E054F3F09040A274FCF090A8
:10241B0040A57408F09040A1E054DFF053D69F9094
:10242B00018CE0B401169040A1E054F3F0900184CC
:10243B00E0FFA3E09040A6CFF0A3EFF0904062E066
:10244B004408F0227E007F327D007B007A00797396
:10245B0012096B7E007F0C7D007B007A007967127E
:10246B00096B7E007F0D7D007B007A00795A120983
:10247B006B7E007F097D007B017A00794812096B26
:10248B00E49001BEF0900087F0FE7F34FD7B017A73
:10249B0000790012096B7E007F067D007B017A00BC
:1024AB00798A12096B7E007F157D007B017A017999
:1024BB007812096B90017A12090100003FFF90011D
:1024CB008012090100003FFF9001861209010000F4
:1024DB003FFF7E007F077D007B017A00796C12093C
:1024EB006B90006F7413F0A37487F07E007F0F7DE9
:1024FB00007B017A00797512096B90007FE4F0A3E1
:10250B0004F07E007F1B7D007B007A00792112098D
:10251B006B7E007F0E7D007B017A0179A312096B24
:10252B007E007F397D007B017A00799212096B7EE8
:10253B00007F097D007B017A00796312096BE490BF
:10254B0001BFF0A3F0A3F0A3F0229001BEE020E1C5
:10255B0034E04402F090405EE0FCA3E0FDE41203A3
:10256B009A7BCD7ACC79CC783D1201761203D3903D
:10257B004058EEF0A3EFF0904062E054F7F0E49097
:10258B00002EF0A3F0C3900031E09464900030E093
:10259B009400502990002EE07002A3E0701F900071
:1025AB002EF0A304F090405CC083C082E0FFA3E058
:1025BB004401D082D083CFF0A3EFF0D2FFD39000B1
:1025CB0031E09442900030E09400502A90002EE0CD
:1025DB007004A3E06401701E90002EF0A37402F04F
:1025EB0090405CC083C082E0FFA3E04404D082D063
:1025FB0083CFF0A3EFF0D3900031E0942190003023
:10260B00E09400502A90002EE07004A3E064027066
:10261B001E90002EF0A37403F090405CC083C08228
:10262B00E0FFA3E04410D082D083CFF0A3EFF022E1
:10263B00900030E07002A3E0600302271A9001BE05
:10264B00E020E53AE04420F0122A3812380D43F925
:10265B0040C2FF90405EE0FEA3E02401FFE43E9009
:10266B004058F0A3EFF0904062E054F7F090403503
:10267B00E04480F0E04440F090404B7422F0C2FF05
:10268B0053A9FEE4F5ABF5AA122B969000CBE064B0
:10269B00076007D2FF43A901806C904035E0547F5F
:1026AB00F090405CC083C082E0FFA3E054C0D082B6
:1026BB00D083CFF0A3EFF09000EEE0FCA3E0FDE4BD
:1026CB0012039AE4FBFA7934784312027F7B007A87
:1026DB00FE79FF78461201761203D390000CEEF0D0
:1026EB00A3EFF09001C57405F0900030E4F0A374F3
:1026FB001EF0904035E054BFF090404B74DEF090EC
:10270B004035E04480F0900030E4F0A37403F022F5
:10271B0090018CE060030227EE904039E04440F0DA
:10272B00904039E020E6F9900186E0F8A3E0F9A3A8
:10273B00E0FAA3E0FBC000C001C002C00390030895
:10274B00E0540FFEA3E07803C333CE33CED8F9FFAA
:10275B00E4FCFDD003D002D001D000EB2FFFEA3E0A
:10276B00FEED39FDEC38FC9001861208DC900186F9
:10277B00E0FCA3E0FDA3E0FEA3E0FF780412084F0A
:10278B00900184EEF0A3EFF0A3E0FCA3E0FDA3E047
:10279B00FEA3E0FFC006C007900184E0FEA3E0FFAC
:1027AB00FBAA06EA3395E0F9F8D007D006C3EF9BF6
:1027BB00FFEE9AFEED99FDEC98FCA31208DC90015C
:1027CB008BE004F0700690018AE004F0D390018B4B
:1027DB00E094E890018AE064809483400690018C39
:1027EB007401F0229001BEE030E40302289BE04428
:1027FB0010F090000CE0FFA3E09040CCCFF0A3EFE3
:10280B00F09040CCE0FEA3E024CDFFEE34ECA3F03F
:10281B00A3EFF09040CEE0FFA3E09001C3CFF0A375
:10282B00EFF0904090E4F0A3F09000087405F0A353
:10283B007438F09040947409F0A37499F0A3740168
:10284B00F0A37447F09040B4747AF0A374E0F0A353
:10285B007485F0A37420F0904074740DF0A374FB96
:10286B00F0A3E4F0A374B4F0904082E4F0A37428D6
:10287B00F0A37402F0A374CAF0A3740AF0A37478E3
:10288B00F09040A0E04440F0E054DFF0E04410F062
:10289B00900030E4F0A37478F09001C57407F090C9
:1028AB000008E0FFA3E0904092CFF0A3EFF022E40A
:1028BB009001BBF0A3F0F07A3FF99001CDF0A3EAC1
:1028CB00F0A3E9F0F5828A83939001BBF09001BBF2
:1028DB00E0647F60599001CEE475F08012058A9018
:1028EB0001CDE0A3E0FAA3E0F9F5828A83E49390AB
:1028FB0001BBF0D3E99400EA943F40D19001CDE4C1
:10290B00F0A3743FF0A3E4F09001BC04F0E4900159
:10291B00D0F004A3F09001CDE0A3E0FAA3E0AE0267
:10292B00FF7D7F12361B9001BB747FF0809FE4FD0F
:10293B00EDC3948050349001CDE0A3E0FAA3E0F90D
:10294B00EDFF7E00E92FF9EE3A8982F583E493904F
:10295B0001BBF0E0D39400400E9001D0EDF004A346
:10296B00F09001BBE0A3F00D80C69001BCE0FF220C
:10297B009000F77401F090010204F0A37420F0E4CE
:10298B00A3F0900103E0FF900102E06FFF900104C0
:10299B00E0FDE4EF6DFF900110E4F0A3EFF01228DF
:1029AB00BA9001D3EFF064116037E0FF642160311E
:1029BB00EF6441602CEF64126027EF64226022EF1A
:1029CB006442601DEF64146018EF64246013EF64BD
:1029DB0044600EEF64186009EF64286004EFB4489C
:1029EB00229001D3E0FD900110E4F0A3EDF0540F21
:1029FB00900102F09001D3E05470900103F0E4A336
:102A0B00F0800A1230C47F41122EE7D2AFE490015E
:102A1B0012F0A3F0A3F0A3F0900105F090010EF0DB
:102A2B00A3F0900116F0900106F0A3F022E49000C1
:102A3B00CBF0A3F0A3F0A3F0A3F0A3F0A3F0A3F0CB
:102A4B00A3F0A3F0A3F0A3F0A3F0A3F0A3F0A3F0E3
:102A5B00A3F0A3F0A3F0A3F0A3F0A3F0A3F0A3F0D3
:102A6B00A3F0A3F0A3F0A3F0A3F0A3F0A3F0A3F0C3
:102A7B00A3F0900179E02401FF900178E034C0FECF
:102A8B00EF7806CEA2E713CE13D8F8FF9000F1EE45
:102A9B00F0A3EFF090017FE02401FF90017EE03482
:102AAB00C0FEEF7806CEA2E713CE13D8F8FF900046
:102ABB00F3EEF0A3EFF0900185E02401FF90018489
:102ACB00E034C0FEEF7806CEA2E713CE13D8F8FFA2
:102ADB009000F5EEF0A3EFF0E49000ECF0A3F0A380
:102AEB00F0A374FFF0E4A3F022C0E0C0F0C083C0F9
:102AFB0082C0D075D000C000C001C002C003C004AA
:102B0B00C005C006C007E5D730E7659001C5E06496
:102B1B0004601112394D9000737401F09001C5746B
:102B2B0009F08049C2FF9000F0E0FF25E024DCF5BE
:102B3B0082E43400F583E5ABF0A3E5AAF0EF25E0E2
:102B4B0024DCF582E43400F583E0FEA3E0FF900083
:102B5B00F0E025E024CCF582E43400F583EEF0A31D
:102B6B00EFF0E4F5ABF5AA9000F0E004F053D77F5B
:102B7B00D007D006D005D004D003D002D001D000AE
:102B8B00D0D0D082D083D0F0D0E0329000CBE0B464
:102B9B000700507B902BA6F8282873022BBB022B27
:102BAB00C5022BCF022BD9022BE3022BED022BF705
:102BBB001236D89000CB7401F0221237059000CB5F
:102BCB007402F0221237329000CB7403F0221237CA
:102BDB005F9000CB7404F02212378C9000CB7405FD
:102BEB00F0221237B99000CB7406F02253F9BF9044
:102BFB00405CC083C082E0FFA3E054C0D082D0838E
:102C0B00CFF0A3EFF0121E289000CB7407F02290A8
:102C1B00405CC083C082E0FFA3E054C0D082D0836D
:102C2B00CFF0A3EFF0227E007F127D007B017A00B4
:102C3B00795112096B900026E4F0A37405F0900013
:102C4B0024E4F0A37402F0900079E4F0A3749AF0FA
:102C5B00A3E4F0A3749AF09000557404F0A374CC21
:102C6B00F0A3E4F0A37428F090005F7422F0A37437
:102C7B00D0F0A37401F0A3740BF0900055E0FEA309
:102C8B00E0FF8EEF8FEEA3E0FEA3E0FF8EF38FF25B
:102C9B0090005FE0FEA3E0FF8EF58FF475F70175F2
:102CAB00F60B9040927401F0A37437F0904092E0D1
:102CBB00FEA3E08EEDF5EC22787406E618700106A3
:102CCB00C37874E6940518E694004004E4F608F61D
:102CDB007873E6FE08E6FF4E700A7B007A00797384
:102CEB0012328E22EF64014E70189001D4E07008FE
:102CFB00FB7A0079731209CB7B007A00797312315E
:102D0B0083227873E6FE08E6FF64024E7009FB7AB5
:102D1B00007973121AE822EF64034E70169001B813
:102D2B00F0A37400F0A3745AF07B007A007973124D
:102D3B000C94227874E6640418467008FB7A0079C8
:102D4B0073121C9822787FE4F6D8FD7581A4022DAE
:102D5B00970233C4E493A3F8E493A34003F68001F2
:102D6B00F208DFF48029E493A3F85407240CC8C3BA
:102D7B0033C4540F4420C8834004F456800146F6F4
:102D8B00DFE4800B01020408102040809032DEE467
:102D9B007E019360BCA3FF543F30E509541FFEE452
:102DAB0093A360010ECF54C025E060A840B8E49314
:102DBB00A3FAE493A3F8E493A3C8C582C8CAC58356
:102DCB00CAF0A3C8C582C8CAC583CADFE9DEE780DB
:102DDB00BE9001BEE020E27FE04404F012233F905E
:102DEB004090E4F0A3F0A3F0A3F0A37409F0A37454
:102DFB0099F0A3E4F0A37428F0904074740DF0A341
:102E0B0074FBF0A3E4F0A374B4F090000DE024AADB
:102E1B00FE90000CE0342A9040CCF0A3CEF0904012
:102E2B00CCE0FEA3E02400FFEE34F0A3F0A3EFF020
:102E3B009040CCE0FFA3E09001C3CFF0A3EFF09064
:102E4B00405CC083C082E0FFA3E0443FD082D083CC
:102E5B00CFF0A3EFF0D2FF229001C5E06407707BA7
:102E6B00900030E0FEA3E0FF64644E700E9040745F
:102E7B00F0A374EEF0A3E4F0A3F022EF643C4E70E9
:102E8B00129040747403F0A374BAF0A3E4F0A3742B
:102E9B000CF022EF64284E70129040747409F0A36A
:102EAB007452F0A3E4F0A37450F022EF64144E704C
:102EBB0012904074740DF0A374FBF0A3E4F0A374B0
:102ECB00B4F022EF640A4E70129040747412F0A3A7
:102EDB0074A4F0A37401F0A37440F0229001BBEF33
:102EEB00F09001D3E09001BDF0E49001BCF09001B3
:102EFB00BDE0FF9001D2E06F60529001BCE0C39443
:102F0B000550499001CDE0A3E0FAA3E0F99001D17F
:102F1B00E0FF7E00E92FF9EE3AFEAF019001BBE036
:102F2B00FD12361B9001CDE0A3E0FAA3E0F990016E
:102F3B00D1E0FF7E00E92FF9EE3A8982F583E49325
:102F4B009001BDF09001BCE004F080A29001BDE0C7
:102F5B00FF9001D2E0B50703A3EFF0229000081217
:102F6B0005E185F0EBF5EA43F90200000000009063
:102F7B00000C1205E185F0EDF5EC75F52275F4D03A
:102F8B0075F70175F60B9000021205E1FFAEF0121A
:102F9B0005B6C39FFFE5F09E9000088FF01206BDAB
:102FAB009000081205E185F0EBF5EA43F902000009
:102FBB00000000E5EC2401FFE435ED90000A8FF0F2
:102FCB001206BD90000A1205E1FF90000CE5F08F90
:102FDB00F01206BD22D2017F01123379904052E0EC
:102FEB0054DFF0904039E04480F090404FE04410C3
:102FFB00F0E4FFFEC3EF94D0EE940750070FEF7091
:10300B00010E80F0904052E04410F0904051E044AB
:10301B00B8F0904036C083C082E0FFA3E0449ED05E
:10302B0082D083CFF0A3EFF0904036C083C082E014
:10303B004430FFA3E0D082D083CFF0A3EFF09040D9
:10304B00387433F0A3E054FCF0228F828E83E0F5CA
:10305B00C78F828E83A3E0F5C68F828E83A3A3E0F6
:10306B00F5C58F828E83A3A3A3E0F5C48D828C83D9
:10307B00E0F5CDAE04AF058F828E83A3E0F5CC4394
:10308B00C101E5C130E703D38001C350F57B017A61
:10309B000179B1E5C785C6F012069E740229F9E4E1
:1030AB003AFAE5C585C4F012069E9001B1E0FCA387
:1030BB00E0FDA3E0FEA3E0FF229001D0E0C3947FEC
:1030CB004057E4F004A3F09001CDE0A3E0FAA3E0B5
:1030DB00AE02FF1235E99001CDE0A3E0FAA3E0C305
:1030EB00EA943F500C9001CEE475F08012058A8073
:1030FB000C9001CDE4F0A3743FF0A3E4F09001CD6C
:10310B00E0A3E0FAA3E0F9A3E0FF7E00E92FF9EEDC
:10311B003AFEAF017D7F12361B22A807E6F5C7E802
:10312B0004F8E6F5C6EF2402F8E6F5C5EF2403F83C
:10313B00E6F5C4A805E6F5CDE804F8E6F5CC43C101
:10314B0001E5C130E703D38001C350F57B017A0160
:10315B0079B1E5C785C6F012069E740229F9E43AE7
:10316B00FAE5C585C4F012069E9001B1E0FCA3E020
:10317B00FDA3E0FEA3E0FF22900073E07056D39016
:10318B000007E09494900006E064809491402C90AA
:10319B00000CE475F00112065190000C1205E1D3FE
:1031AB009414E5F09400402C90000CE4F5F012061A
:1031BB00BD9000737409F012394D2290000C12056A
:1031CB00E1D39400E5F09400400A90000C74FFF5F5
:1031DB00F01206512290405E7401F0A374ACF0A380
:1031EB007418F0904062E04404F090405CC083C0DF
:1031FB0082A3E0543FFFD082D083E4F0A3EFF053DF
:10320B00F8C0904061E054EFF0E054FC4402F090C1
:10321B00405AE4F0A374D6F0D2BFC2BE904061E036
:10322B004404F0A3E04480F0E054EFF0E04401F0FC
:10323B0022C0E0C0F0C083C082C0D075D000C000F7
:10324B00C001C002C003C004C005C006C007904047
:10325B0061E030E4131235137B007A00795A1221A6
:10326B0005904061E054EFF0D007D006D005D004B4
:10327B00D003D002D001D000D0D0D082D083D0F0F8
:10328B00D0E0329001C5E064097047900073E064B0
:10329B0009703FC37872E6940518E694005033909A
:1032AB00000CE475F00112065190000C1205E1C3FD
:1032BB0094E0E5F0942E401A90000CE4F5F0120621
:1032CB00BD787206E618700106E49001C5F0900017
:1032DB0073F0224101D400480150000000000000AF
:1032EB00000041015C0041014D005400340000011D
:1032FB00F403E808980B5410CC170C1C841EDC212B
:10330B00664100740041011C0041011D0041011781
:10331B00004101190041011B004101180041011A34
:10332B000000E4900073F0FE7F32FDFB7A007973AE
:10333B0012096B7E007F347D007B017A00790012CD
:10334B00096B7E007F177D007B017A01795F120983
:10335B006BE49001BEF0FE7F07FD7B017A00796C78
:10336B0012096B90006F7413F0A37487F022EF14A3
:10337B00601314601B1460232403702690404FE0ED
:10338B00543FF0801D90404FE0543F4440F080127A
:10339B0090404FE0543F4480F0800790404FE04412
:1033AB00C0F090404FE054EFFF3001047E108002DC
:1033BB007E00EF4E90404FF022E4FBFA900140125A
:1033CB00090100000A28E49001D4F0C3EB9410EA41
:1033DB00942750070BEB70010A80F020950920977A
:1033EB00069001D47401F01239161238C112396BE0
:1033FB00120F5912271B121F9C9000817401F08031
:10340B00F222C0E0C0F0C083C082C0D075D000C033
:10341B0000C001C002C003C004C005C006C0071233
:10342B00394D9000737401F09001C57409F0C28A94
:10343B00D007D006D005D004D003D002D001D000E5
:10344B00D0D0D082D083D0F0D0E032539DFEE59C1B
:10345B00549F4460F59C439C01539CEFE59D54F9AC
:10346B004402F59D539D1F439D08439C08D2CBC23C
:10347B00CAD2AF75A30075A20175A71775A670E523
:10348B00A7C313FEE5A6138EA5F5A4539DFE2290AC
:10349B004051E04480F053D69FE04440F053FEBFD0
:1034AB00904035E054BFF090404B74DEF0904035C7
:1034BB00E04480F043D60853D9FBE5D954E74408E0
:1034CB00F5D9E5D954FC4403F5D943D61022539FC3
:1034DB00FEE59E549F4460F59E539EFE539EEFE582
:1034EB009F54F94402F59F539F1F539FE7E4F593B5
:1034FB00F592759717759670E597C313FEE59613BE
:10350B008E95F594539FFE22783BE6B401127F27EC
:10351B007D2F1231257831A60608A607E4783BF6F5
:10352B00900018E0B401187E007F107C007D16120D
:10353B003055900019EEF0A3EFF0E4900018F02254
:10354B009001C5E0B4032EC3900166E094FA90019C
:10355B0065E09400500DA3E004F07006900165E067
:10356B0004F022E490015FF0A3F0900165F0A3F06A
:10357B0090016C04F02275FC4F904053744FF0C2D5
:10358B0086D280D281D282D28375FFC0904056748E
:10359B00C0F0D2B6D2B7E4F5FD90405474A8F075E4
:1035AB00FD03E054FEF0E054FDF022900110E0FF2B
:1035BB00A3E0A3CFF0A3EFF0121464900110EEF090
:1035CB00A3EFF0A3E06E7003A3E06F60109001C552
:1035DB00E0B407099001147401F0E4A3F022A2AF48
:1035EB009201C2AFC3EF9480EE943F5014758503E4
:1035FB0075845A75841F008F828E8374FFF07585D6
:10360B0008A20192AFE58530E4037F01227F0022FF
:10361B00A2AF9201C2AFC3EF9480EE943F501375EB
:10362B00850175845A75841F008F828E83EDF0752A
:10363B008508A20192AFE58530E4037F01227F006C
:10364B00229001BEE020E028E04401F0904062E0CF
:10365B0054DFF0C2FF904036C083C082E0FFA3E08E
:10366B00449FD082D083CFF0A3EFF0E490018CF095
:10367B002275EF0475EECC75F30075F228E4F5EBCB
:10368B00F5EA53F9FB43F90275F52275F4D075F79A
:10369B000175F60B00000000F5EDF5EC53F9FD227A
:1036AB009001B5EEF0A3EFF0AF038FDD9001B5E025
:1036BB00FEA3E0FF8EDF8FDEAE04AF058EE78FE655
:1036CB0043F9010000000000AFE6AEE72290405C3A
:1036DB00C083C082E0FFA3E054C0D082D083CFF080
:1036EB00A3EFF090405CC083C082E0FFA3E04418DE
:1036FB00D082D083CFF0A3EFF02290405CC083C088
:10370B0082E0FFA3E054C0D082D083CFF0A3EFF0D0
:10371B0090405CC083C082E0FFA3E04424D082D001
:10372B0083CFF0A3EFF02290405CC083C082E0FF18
:10373B00A3E054C0D082D083CFF0A3EFF090405CD5
:10374B00C083C082E0FFA3E04406D082D083CFF0D9
:10375B00A3EFF02290405CC083C082E0FFA3E05453
:10376B00C0D082D083CFF0A3EFF090405CC083C079
:10377B0082E0FFA3E04409D082D083CFF0A3EFF027
:10378B002290405CC083C082E0FFA3E054C0D08293
:10379B00D083CFF0A3EFF090405CC083C082E0FFFA
:1037AB00A3E04421D082D083CFF0A3EFF02290404E
:1037BB005CC083C082E0FFA3E054C0D082D083CF33
:1037CB00F0A3EFF090405CC083C082E0FFA3E04425
:1037DB0012D082D083CFF0A3EFF022C0E0C083C021
:1037EB0082C0D075D000C00730980CC298AF9990AA
:1037FB0000BAE4F0A3EFF0D007D0D0D082D083D0C2
:10380B00E03253A9FE53A11FE5A154FC4401F5A1DD
:10381B0043A90453A91F53A1F353A9E7E4F5ABF54F
:10382B00AA74FFF5AFF5AE22C0E0E59D30E705D2F7
:10383B0091539D7FE59D30E603539DBFE59D30E59C
:10384B0008C291539DFE539DDFD0E032904036C0AD
:10385B0083C082E0FFA3E054ECD082D083CFF0A3EF
:10386B00EFF012332D12367CE4900191F0A3F0228D
:10387B0053FEFE904055E054FEF0904051E054FE54
:10388B00F053D4FE43D301C28CD28BC2BDD2BCD277
:10389B00AAD2AF2290404FE04401F0904051E04457
:1038AB0080F0A3E04403F0904051E0440EF09040D0
:1038BB004EE04401F02212349A12358112387B12F9
:1038CB00389F122FE012393B1231E012345612346A
:1038DB00D912395D22C0E0E5A930E70353A97FE592
:1038EB00A930E60353A9BFE5A930E50353A9DFD0FF
:1038FB00E032AD07AC06C3EC648094805008C3E49F
:10390B009DFFE49CFE22AE04AF052212244F122928
:10391B007B123929E49001C5F0900073F022E490FA
:10392B0001C8F0A3F0A3F0A3F0A3F09001C6F0221E
:10393B0053D77FE5D5543F4440F5D5D2C7D2C6D235
:10394B00AF22C2FF904062E054DFF09001C57409D2
:10395B00F022C2CDD2CCD2AF904061E04440F022F5
:10396B0053DC9F53DCF8220000009500D3010301C8
:10397B002B014F016F018D01A901C301DC01F30282
:10398B000A022002350249025D027002830295028F
:10399B00A702B902CA02DB02EB02FB030B031B03F8
:1039AB002A033A0349035703660374038303910302
:1039BB009F03AD03BA03C803D503E303F003FD0470
:1039CB000A041704230430043D044904560462041A
:1039DB006E047A04870493049F04AB04B704C204F7
:1039EB00CE04DA04E604F104FD05090514052005EF
:1039FB002B05370542054D05590564056F057B05FC
:103A0B00860591059C05A705B305BE05C905D4051B
:103A1B00DF05EA05F50600060C06170622062D063D
:103A2B00380643064E065906640670067B06860664
:103A3B0091069C06A706B306BE06C906D406E00689
:103A4B00EB06F60702070D07180724072F073B079E
:103A5B00470752075E076907750781078D079907A7
:103A6B00A507B107BD07C907D507E107EE07FA0898
:103A7B000708130820082D083A084608540861085F
:103A8B006E087B0889089708A408B208C008CF08FD
:103A9B00DD08EC08FA09090918092809370947094B
:103AAB005709680979098A099B09AD09BF09D20928
:103ABB00E509F90A0D0A220A380A4E0A660A7E0A35
:103ACB00980AB40AD10AF10B140B3B0B690BA40C2B
:013ADB0006E4
:00000001FF
